{
	"data": {
		"bytecode": {
			"linkReferences": {},
			"object": "60806040526001600055600180556001600260006101000a81548160ff021916908360ff1602179055506001600355735b38da6a701c568545dcfcb03fcb875f56beddc4600460006101000a81548173ffffffffffffffffffffffffffffffffffffffff021916908373ffffffffffffffffffffffffffffffffffffffff16021790555060405180604001604052806317c2d66081526020016040518060400160405280600581526020017f68656c6c6f00000000000000000000000000000000000000000000000000000081525081525060056000820151816000015560208201518160010190805190602001906100f992919061010e565b50505034801561010857600080fd5b50610212565b82805461011a906101b1565b90600052602060002090601f01602090048101928261013c5760008555610183565b82601f1061015557805160ff1916838001178555610183565b82800160010185558215610183579182015b82811115610182578251825591602001919060010190610167565b5b5090506101909190610194565b5090565b5b808211156101ad576000816000905550600101610195565b5090565b600060028204905060018216806101c957607f821691505b602082108114156101dd576101dc6101e3565b5b50919050565b7f4e487b7100000000000000000000000000000000000000000000000000000000600052602260045260246000fd5b610477806102216000396000f3fe608060405234801561001057600080fd5b50600436106100625760003560e01c8063209652551461006757806321cac57314610085578063a59cb107146100a4578063afd9ee11146100c2578063d412f490146100e0578063fcf814c3146100fe575b600080fd5b61006f61011c565b60405161007c91906102cd565b60405180910390f35b61008d61015f565b60405161009b92919061030a565b60405180910390f35b6100ac6101f9565b6040516100b991906102b2565b60405180910390f35b6100ca6101ff565b6040516100d791906102ef565b60405180910390f35b6100e8610205565b6040516100f591906102ef565b60405180910390f35b61010661020b565b6040516101139190610297565b60405180910390f35b606060006040518060400160405280600581526020017f68656d6c6f00000000000000000000000000000000000000000000000000000081525090508091505090565b6005806000015490806001018054610176906103cf565b80601f01602080910402602001604051908101604052809291908181526020018280546101a2906103cf565b80156101ef5780601f106101c4576101008083540402835291602001916101ef565b820191906000526020600020905b8154815290600101906020018083116101d257829003601f168201915b5050505050905082565b60005481565b60035481565b60015481565b600460009054906101000a900473ffffffffffffffffffffffffffffffffffffffff1681565b61023a81610356565b82525050565b61024981610368565b82525050565b600061025a8261033a565b6102648185610345565b935061027481856020860161039c565b61027d81610430565b840191505092915050565b61029181610392565b82525050565b60006020820190506102ac6000830184610231565b92915050565b60006020820190506102c76000830184610240565b92915050565b600060208201905081810360008301526102e7818461024f565b905092915050565b60006020820190506103046000830184610288565b92915050565b600060408201905061031f6000830185610288565b8181036020830152610331818461024f565b90509392505050565b600081519050919050565b600082825260208201905092915050565b600061036182610372565b9050919050565b6000819050919050565b600073ffffffffffffffffffffffffffffffffffffffff82169050919050565b6000819050919050565b60005b838110156103ba57808201518184015260208101905061039f565b838111156103c9576000848401525b50505050565b600060028204905060018216806103e757607f821691505b602082108114156103fb576103fa610401565b5b50919050565b7f4e487b7100000000000000000000000000000000000000000000000000000000600052602260045260246000fd5b6000601f19601f830116905091905056fea2646970667358221220c99c887c8df74fc39f9520989a29f2c5520b3652cc68a3e854212accad7abbfd64736f6c63430008070033",
			"opcodes": "PUSH1 0x80 PUSH1 0x40 MSTORE PUSH1 0x1 PUSH1 0x0 SSTORE PUSH1 0x1 DUP1 SSTORE PUSH1 0x1 PUSH1 0x2 PUSH1 0x0 PUSH2 0x100 EXP DUP2 SLOAD DUP2 PUSH1 0xFF MUL NOT AND SWAP1 DUP4 PUSH1 0xFF AND MUL OR SWAP1 SSTORE POP PUSH1 0x1 PUSH1 0x3 SSTORE PUSH20 0x5B38DA6A701C568545DCFCB03FCB875F56BEDDC4 PUSH1 0x4 PUSH1 0x0 PUSH2 0x100 EXP DUP2 SLOAD DUP2 PUSH20 0xFFFFFFFFFFFFFFFFFFFFFFFFFFFFFFFFFFFFFFFF MUL NOT AND SWAP1 DUP4 PUSH20 0xFFFFFFFFFFFFFFFFFFFFFFFFFFFFFFFFFFFFFFFF AND MUL OR SWAP1 SSTORE POP PUSH1 0x40 MLOAD DUP1 PUSH1 0x40 ADD PUSH1 0x40 MSTORE DUP1 PUSH4 0x17C2D660 DUP2 MSTORE PUSH1 0x20 ADD PUSH1 0x40 MLOAD DUP1 PUSH1 0x40 ADD PUSH1 0x40 MSTORE DUP1 PUSH1 0x5 DUP2 MSTORE PUSH1 0x20 ADD PUSH32 0x68656C6C6F000000000000000000000000000000000000000000000000000000 DUP2 MSTORE POP DUP2 MSTORE POP PUSH1 0x5 PUSH1 0x0 DUP3 ADD MLOAD DUP2 PUSH1 0x0 ADD SSTORE PUSH1 0x20 DUP3 ADD MLOAD DUP2 PUSH1 0x1 ADD SWAP1 DUP1 MLOAD SWAP1 PUSH1 0x20 ADD SWAP1 PUSH2 0xF9 SWAP3 SWAP2 SWAP1 PUSH2 0x10E JUMP JUMPDEST POP POP POP CALLVALUE DUP1 ISZERO PUSH2 0x108 JUMPI PUSH1 0x0 DUP1 REVERT JUMPDEST POP PUSH2 0x212 JUMP JUMPDEST DUP3 DUP1 SLOAD PUSH2 0x11A SWAP1 PUSH2 0x1B1 JUMP JUMPDEST SWAP1 PUSH1 0x0 MSTORE PUSH1 0x20 PUSH1 0x0 KECCAK256 SWAP1 PUSH1 0x1F ADD PUSH1 0x20 SWAP1 DIV DUP2 ADD SWAP3 DUP3 PUSH2 0x13C JUMPI PUSH1 0x0 DUP6 SSTORE PUSH2 0x183 JUMP JUMPDEST DUP3 PUSH1 0x1F LT PUSH2 0x155 JUMPI DUP1 MLOAD PUSH1 0xFF NOT AND DUP4 DUP1 ADD OR DUP6 SSTORE PUSH2 0x183 JUMP JUMPDEST DUP3 DUP1 ADD PUSH1 0x1 ADD DUP6 SSTORE DUP3 ISZERO PUSH2 0x183 JUMPI SWAP2 DUP3 ADD JUMPDEST DUP3 DUP2 GT ISZERO PUSH2 0x182 JUMPI DUP3 MLOAD DUP3 SSTORE SWAP2 PUSH1 0x20 ADD SWAP2 SWAP1 PUSH1 0x1 ADD SWAP1 PUSH2 0x167 JUMP JUMPDEST JUMPDEST POP SWAP1 POP PUSH2 0x190 SWAP2 SWAP1 PUSH2 0x194 JUMP JUMPDEST POP SWAP1 JUMP JUMPDEST JUMPDEST DUP1 DUP3 GT ISZERO PUSH2 0x1AD JUMPI PUSH1 0x0 DUP2 PUSH1 0x0 SWAP1 SSTORE POP PUSH1 0x1 ADD PUSH2 0x195 JUMP JUMPDEST POP SWAP1 JUMP JUMPDEST PUSH1 0x0 PUSH1 0x2 DUP3 DIV SWAP1 POP PUSH1 0x1 DUP3 AND DUP1 PUSH2 0x1C9 JUMPI PUSH1 0x7F DUP3 AND SWAP2 POP JUMPDEST PUSH1 0x20 DUP3 LT DUP2 EQ ISZERO PUSH2 0x1DD JUMPI PUSH2 0x1DC PUSH2 0x1E3 JUMP JUMPDEST JUMPDEST POP SWAP2 SWAP1 POP JUMP JUMPDEST PUSH32 0x4E487B7100000000000000000000000000000000000000000000000000000000 PUSH1 0x0 MSTORE PUSH1 0x22 PUSH1 0x4 MSTORE PUSH1 0x24 PUSH1 0x0 REVERT JUMPDEST PUSH2 0x477 DUP1 PUSH2 0x221 PUSH1 0x0 CODECOPY PUSH1 0x0 RETURN INVALID PUSH1 0x80 PUSH1 0x40 MSTORE CALLVALUE DUP1 ISZERO PUSH2 0x10 JUMPI PUSH1 0x0 DUP1 REVERT JUMPDEST POP PUSH1 0x4 CALLDATASIZE LT PUSH2 0x62 JUMPI PUSH1 0x0 CALLDATALOAD PUSH1 0xE0 SHR DUP1 PUSH4 0x20965255 EQ PUSH2 0x67 JUMPI DUP1 PUSH4 0x21CAC573 EQ PUSH2 0x85 JUMPI DUP1 PUSH4 0xA59CB107 EQ PUSH2 0xA4 JUMPI DUP1 PUSH4 0xAFD9EE11 EQ PUSH2 0xC2 JUMPI DUP1 PUSH4 0xD412F490 EQ PUSH2 0xE0 JUMPI DUP1 PUSH4 0xFCF814C3 EQ PUSH2 0xFE JUMPI JUMPDEST PUSH1 0x0 DUP1 REVERT JUMPDEST PUSH2 0x6F PUSH2 0x11C JUMP JUMPDEST PUSH1 0x40 MLOAD PUSH2 0x7C SWAP2 SWAP1 PUSH2 0x2CD JUMP JUMPDEST PUSH1 0x40 MLOAD DUP1 SWAP2 SUB SWAP1 RETURN JUMPDEST PUSH2 0x8D PUSH2 0x15F JUMP JUMPDEST PUSH1 0x40 MLOAD PUSH2 0x9B SWAP3 SWAP2 SWAP1 PUSH2 0x30A JUMP JUMPDEST PUSH1 0x40 MLOAD DUP1 SWAP2 SUB SWAP1 RETURN JUMPDEST PUSH2 0xAC PUSH2 0x1F9 JUMP JUMPDEST PUSH1 0x40 MLOAD PUSH2 0xB9 SWAP2 SWAP1 PUSH2 0x2B2 JUMP JUMPDEST PUSH1 0x40 MLOAD DUP1 SWAP2 SUB SWAP1 RETURN JUMPDEST PUSH2 0xCA PUSH2 0x1FF JUMP JUMPDEST PUSH1 0x40 MLOAD PUSH2 0xD7 SWAP2 SWAP1 PUSH2 0x2EF JUMP JUMPDEST PUSH1 0x40 MLOAD DUP1 SWAP2 SUB SWAP1 RETURN JUMPDEST PUSH2 0xE8 PUSH2 0x205 JUMP JUMPDEST PUSH1 0x40 MLOAD PUSH2 0xF5 SWAP2 SWAP1 PUSH2 0x2EF JUMP JUMPDEST PUSH1 0x40 MLOAD DUP1 SWAP2 SUB SWAP1 RETURN JUMPDEST PUSH2 0x106 PUSH2 0x20B JUMP JUMPDEST PUSH1 0x40 MLOAD PUSH2 0x113 SWAP2 SWAP1 PUSH2 0x297 JUMP JUMPDEST PUSH1 0x40 MLOAD DUP1 SWAP2 SUB SWAP1 RETURN JUMPDEST PUSH1 0x60 PUSH1 0x0 PUSH1 0x40 MLOAD DUP1 PUSH1 0x40 ADD PUSH1 0x40 MSTORE DUP1 PUSH1 0x5 DUP2 MSTORE PUSH1 0x20 ADD PUSH32 0x68656D6C6F000000000000000000000000000000000000000000000000000000 DUP2 MSTORE POP SWAP1 POP DUP1 SWAP2 POP POP SWAP1 JUMP JUMPDEST PUSH1 0x5 DUP1 PUSH1 0x0 ADD SLOAD SWAP1 DUP1 PUSH1 0x1 ADD DUP1 SLOAD PUSH2 0x176 SWAP1 PUSH2 0x3CF JUMP JUMPDEST DUP1 PUSH1 0x1F ADD PUSH1 0x20 DUP1 SWAP2 DIV MUL PUSH1 0x20 ADD PUSH1 0x40 MLOAD SWAP1 DUP2 ADD PUSH1 0x40 MSTORE DUP1 SWAP3 SWAP2 SWAP1 DUP2 DUP2 MSTORE PUSH1 0x20 ADD DUP3 DUP1 SLOAD PUSH2 0x1A2 SWAP1 PUSH2 0x3CF JUMP JUMPDEST DUP1 ISZERO PUSH2 0x1EF JUMPI DUP1 PUSH1 0x1F LT PUSH2 0x1C4 JUMPI PUSH2 0x100 DUP1 DUP4 SLOAD DIV MUL DUP4 MSTORE SWAP2 PUSH1 0x20 ADD SWAP2 PUSH2 0x1EF JUMP JUMPDEST DUP3 ADD SWAP2 SWAP1 PUSH1 0x0 MSTORE PUSH1 0x20 PUSH1 0x0 KECCAK256 SWAP1 JUMPDEST DUP2 SLOAD DUP2 MSTORE SWAP1 PUSH1 0x1 ADD SWAP1 PUSH1 0x20 ADD DUP1 DUP4 GT PUSH2 0x1D2 JUMPI DUP3 SWAP1 SUB PUSH1 0x1F AND DUP3 ADD SWAP2 JUMPDEST POP POP POP POP POP SWAP1 POP DUP3 JUMP JUMPDEST PUSH1 0x0 SLOAD DUP2 JUMP JUMPDEST PUSH1 0x3 SLOAD DUP2 JUMP JUMPDEST PUSH1 0x1 SLOAD DUP2 JUMP JUMPDEST PUSH1 0x4 PUSH1 0x0 SWAP1 SLOAD SWAP1 PUSH2 0x100 EXP SWAP1 DIV PUSH20 0xFFFFFFFFFFFFFFFFFFFFFFFFFFFFFFFFFFFFFFFF AND DUP2 JUMP JUMPDEST PUSH2 0x23A DUP2 PUSH2 0x356 JUMP JUMPDEST DUP3 MSTORE POP POP JUMP JUMPDEST PUSH2 0x249 DUP2 PUSH2 0x368 JUMP JUMPDEST DUP3 MSTORE POP POP JUMP JUMPDEST PUSH1 0x0 PUSH2 0x25A DUP3 PUSH2 0x33A JUMP JUMPDEST PUSH2 0x264 DUP2 DUP6 PUSH2 0x345 JUMP JUMPDEST SWAP4 POP PUSH2 0x274 DUP2 DUP6 PUSH1 0x20 DUP7 ADD PUSH2 0x39C JUMP JUMPDEST PUSH2 0x27D DUP2 PUSH2 0x430 JUMP JUMPDEST DUP5 ADD SWAP2 POP POP SWAP3 SWAP2 POP POP JUMP JUMPDEST PUSH2 0x291 DUP2 PUSH2 0x392 JUMP JUMPDEST DUP3 MSTORE POP POP JUMP JUMPDEST PUSH1 0x0 PUSH1 0x20 DUP3 ADD SWAP1 POP PUSH2 0x2AC PUSH1 0x0 DUP4 ADD DUP5 PUSH2 0x231 JUMP JUMPDEST SWAP3 SWAP2 POP POP JUMP JUMPDEST PUSH1 0x0 PUSH1 0x20 DUP3 ADD SWAP1 POP PUSH2 0x2C7 PUSH1 0x0 DUP4 ADD DUP5 PUSH2 0x240 JUMP JUMPDEST SWAP3 SWAP2 POP POP JUMP JUMPDEST PUSH1 0x0 PUSH1 0x20 DUP3 ADD SWAP1 POP DUP2 DUP2 SUB PUSH1 0x0 DUP4 ADD MSTORE PUSH2 0x2E7 DUP2 DUP5 PUSH2 0x24F JUMP JUMPDEST SWAP1 POP SWAP3 SWAP2 POP POP JUMP JUMPDEST PUSH1 0x0 PUSH1 0x20 DUP3 ADD SWAP1 POP PUSH2 0x304 PUSH1 0x0 DUP4 ADD DUP5 PUSH2 0x288 JUMP JUMPDEST SWAP3 SWAP2 POP POP JUMP JUMPDEST PUSH1 0x0 PUSH1 0x40 DUP3 ADD SWAP1 POP PUSH2 0x31F PUSH1 0x0 DUP4 ADD DUP6 PUSH2 0x288 JUMP JUMPDEST DUP2 DUP2 SUB PUSH1 0x20 DUP4 ADD MSTORE PUSH2 0x331 DUP2 DUP5 PUSH2 0x24F JUMP JUMPDEST SWAP1 POP SWAP4 SWAP3 POP POP POP JUMP JUMPDEST PUSH1 0x0 DUP2 MLOAD SWAP1 POP SWAP2 SWAP1 POP JUMP JUMPDEST PUSH1 0x0 DUP3 DUP3 MSTORE PUSH1 0x20 DUP3 ADD SWAP1 POP SWAP3 SWAP2 POP POP JUMP JUMPDEST PUSH1 0x0 PUSH2 0x361 DUP3 PUSH2 0x372 JUMP JUMPDEST SWAP1 POP SWAP2 SWAP1 POP JUMP JUMPDEST PUSH1 0x0 DUP2 SWAP1 POP SWAP2 SWAP1 POP JUMP JUMPDEST PUSH1 0x0 PUSH20 0xFFFFFFFFFFFFFFFFFFFFFFFFFFFFFFFFFFFFFFFF DUP3 AND SWAP1 POP SWAP2 SWAP1 POP JUMP JUMPDEST PUSH1 0x0 DUP2 SWAP1 POP SWAP2 SWAP1 POP JUMP JUMPDEST PUSH1 0x0 JUMPDEST DUP4 DUP2 LT ISZERO PUSH2 0x3BA JUMPI DUP1 DUP3 ADD MLOAD DUP2 DUP5 ADD MSTORE PUSH1 0x20 DUP2 ADD SWAP1 POP PUSH2 0x39F JUMP JUMPDEST DUP4 DUP2 GT ISZERO PUSH2 0x3C9 JUMPI PUSH1 0x0 DUP5 DUP5 ADD MSTORE JUMPDEST POP POP POP POP JUMP JUMPDEST PUSH1 0x0 PUSH1 0x2 DUP3 DIV SWAP1 POP PUSH1 0x1 DUP3 AND DUP1 PUSH2 0x3E7 JUMPI PUSH1 0x7F DUP3 AND SWAP2 POP JUMPDEST PUSH1 0x20 DUP3 LT DUP2 EQ ISZERO PUSH2 0x3FB JUMPI PUSH2 0x3FA PUSH2 0x401 JUMP JUMPDEST JUMPDEST POP SWAP2 SWAP1 POP JUMP JUMPDEST PUSH32 0x4E487B7100000000000000000000000000000000000000000000000000000000 PUSH1 0x0 MSTORE PUSH1 0x22 PUSH1 0x4 MSTORE PUSH1 0x24 PUSH1 0x0 REVERT JUMPDEST PUSH1 0x0 PUSH1 0x1F NOT PUSH1 0x1F DUP4 ADD AND SWAP1 POP SWAP2 SWAP1 POP JUMP INVALID LOG2 PUSH5 0x6970667358 0x22 SLT KECCAK256 0xC9 SWAP13 DUP9 PUSH29 0x8DF74FC39F9520989A29F2C5520B3652CC68A3E854212ACCAD7ABBFD64 PUSH20 0x6F6C634300080700330000000000000000000000 "
		},
		"gasEstimates": {
			"creation": {
				"codeDepositCost": "228600",
				"executionCost": "infinite",
				"totalCost": "infinite"
			},
			"external": {
				"getValue()": "infinite",
				"myaddress()": "2602",
				"myint()": "2451",
				"mystruct()": "infinite",
				"myuint()": "2495",
				"uint2()": "2473"
			}
		},
		"methodIdentifiers": {
			"getValue()": "20965255",
			"myaddress()": "fcf814c3",
			"myint()": "a59cb107",
			"mystruct()": "21cac573",
			"myuint()": "d412f490",
			"uint2()": "afd9ee11"
		}
	},
	"abi": [
		{
			"inputs": [],
			"name": "getValue",
			"outputs": [
				{
					"internalType": "string",
					"name": "",
					"type": "string"
				}
			],
			"stateMutability": "pure",
			"type": "function"
		},
		{
			"inputs": [],
			"name": "myaddress",
			"outputs": [
				{
					"internalType": "address",
					"name": "",
					"type": "address"
				}
			],
			"stateMutability": "view",
			"type": "function"
		},
		{
			"inputs": [],
			"name": "myint",
			"outputs": [
				{
					"internalType": "int256",
					"name": "",
					"type": "int256"
				}
			],
			"stateMutability": "view",
			"type": "function"
		},
		{
			"inputs": [],
			"name": "mystruct",
			"outputs": [
				{
					"internalType": "uint256",
					"name": "id",
					"type": "uint256"
				},
				{
					"internalType": "string",
					"name": "name",
					"type": "string"
				}
			],
			"stateMutability": "view",
			"type": "function"
		},
		{
			"inputs": [],
			"name": "myuint",
			"outputs": [
				{
					"internalType": "uint256",
					"name": "",
					"type": "uint256"
				}
			],
			"stateMutability": "view",
			"type": "function"
		},
		{
			"inputs": [],
			"name": "uint2",
			"outputs": [
				{
					"internalType": "uint256",
					"name": "",
					"type": "uint256"
				}
			],
			"stateMutability": "view",
			"type": "function"
		}
	]
}